:080000000C94A2000C94000016
:100008000C9400000C9400000C9400000C94000068
:100018000C9400000C9400000C9400000C94000058
:100028000C9400000C9400000C9400000C94000048
:100038000C9400000C9400000C9400000C94000038
:100048000C9400000C9400000C9400001027E803A6
:1000580064000A0001000010000110000100373898
:10006800392F3435362A3132332D20303D2B313A71
:1000780053746F70776174636800323A54696D65C0
:100088007200333A434C4F434B00496E76616C69BA
:100098006420696E70757400456E74657220686FAF
:1000A8007572733A2000456E746572206D696E74BE
:1000B8007565733A2000456E746572207365636FC9
:1000C8006E64733A20003A0054696D65207570219A
:1000D800210080C001002D4E414E00494E460000CF
:1000E8001000E20166000C006001760008006C0157
:1000F8008200080074018A000E007C0192000E0044
:100108008A0192000E009801A0001000A601AE001E
:100118001000B601BE000200C601CE000200C801F0
:10012800CE000A00CA01D0000E00D40192000200DD
:10013800F501DA000100FC01DC000000F894EE276C
:10014800ECBBF1E0FBBFEBBFE5BF8DE0A2E0BB2756
:10015800ED938A95E9F780E094E0A0E6ED930197A6
:10016800E9F7E8EEF0E085919591009761F0A591A7
:10017800B59105901590BF01F00105900D9201977A
:10018800E1F7FB01F0CFEFE5EDBFE4E0EEBFC0E63D
:10019800D1E00C94CF00A09AA89888988B98909A50
:1001A800939AA4E130D2F5D1A0E6B1E01DD285D270
:1001B800ACE6B1E019D2E0E0EA93A2E0D6D1A4E738
:1001C800B1E012D23ED0E093F401A091F401EDD158
:1001D800A091F401A13339F5DCD179D02F0171D286
:1001E8007BD03F01EBE3F0E0E615F70534F469D284
:1001F800ACE7B1E0F9D165D216C063D272D04F0135
:10020800A8EEB3E0ABD2ECE3F0E08E169F0624F440
:10021800C0D198D0BED107C0BCD1AAE8B1E0E4D122
:10022800A8EEB3E09BD2A091F401A23311F4B1D1AE
:10023800E6D0A091F401A33311F4ABD114D1B3CF1C
:10024800FFCFEFE0E7BBE0EFE8BBA4E1B0E086D288
:10025800E6B3E07FDE2EE0EFED15B9F3A4E6B0E0FB
:100268007DD2EEEF32D211F0CC2413C0EDEF2DD2B7
:1002780019F0E1E0CE2E0DC0EBEF27D219F0E2E045
:10028800CE2E07C0E7EF21D219F0E3E0CE2E01C051
:10029800D8CFE0EEED1529F41FD2AE0FBF1FEC91B9
:1002A8000895E0EDED1529F417D2EA0FFB1FE1815F
:1002B8000895E0EBED1529F40FD2EA0FFB1FE28158
:1002C80008950AD2EA0FFB1FE381089508951A934F
:1002D8000A93A8E9B1E009C01A930A93A6EAB1E023
:1002E80004C01A930A93A6EBB1E07ED1AADFE053CB
:1002F800BE2EF8D1A6DFE053AE2EF4D1AB2DEAE046
:10030800EA9FF001DF01EA2DF0E0EA0FFB1F8F0101
:100318000991199108950FD28D012E813F81488549
:10032800598537D15A934A93E6D1A6ECB1E05CD10E
:100338003A932A93E0D1A8ECB1E056D11A930A93E4
:10034800DAD15AC02497E0E0E883E983EA83EB83B3
:10035800F2D1820111230AF445C0AE81BF81119701
:10036800F1F42BE330E03323CAF0A885B98511975F
:1003780049F44BE350E0552322F0C3D1415050409B
:10038800FACF09C0C7D1552332F0809B35C0B9D107
:1003980041505040F8CF21503040E5CF20C0E1E037
:1003A800F0E0EE83FF8393013323CAF0A885B98573
:1003B800119749F44BE350E0552322F0A2D1415064
:1003C8005040FACF09C0A6D1552332F0809B14C003
:1003D80098D141505040F8CF21503040E5CF0150DE
:1003E8001040B8CF6AD1AAECB1E0FED0A89AA0ED2F
:1003F800B7E0B4D1A898CDD0A5D12A9608959BD1BD
:1004080000E010E00931E0E01E0754F520E030E09C
:100418002C33E0E03E070CF540E050E04C33E0E0E0
:100428005E07C4F4809902C0B4D01AC083990EC084
:10043800A4E1B5E093D1839904C0A4E6B0E08ED1DD
:1004480005C0809902C0A5D00BC0F5CF5AD14F5F27
:100458005F4FE4CF2F5F3F4FDBCF0F5F1F4FD2CFF0
:1004680071D126960895269766D131DFEA87FB87F2
:1004780028D132DFE887F98724D133DFEE83FF8381
:1004880020D1AA85BB85589744F4A885B985DC97FF
:1004980024F4AE81BF81DC9734F0A4EDB1E0A4D0A0
:1004A800A0EDB7E05BD10A851B850831E0E01E07A7
:1004B800BCF5288539852C33E0E03E078CF44E8165
:1004C8005F814C33E0E05E0744F4809902C061D05C
:1004D80027C017D14F5F5F4FF4CF2F5F3F4FEBCF50
:1004E800E7E1F0E0E017F10741F4ECE3F0E0E217B0
:1004F800F30719F4E417F50709F00FC00FEF1FEF22
:1005080020E030E040E050E0EFEFFFEFEA87FB87C4
:10051800E0E0E887E987EE83EF830F5F1F4FC5CFE1
:1005280011D12C9608951A931A2FEBB3EF70AE2FB2
:10053800E12FE07FEA2BEBBB8DE08A95F1F7DA9AA1
:100548008DE08A95F1F7DA988DE08A95F1F785C004
:10055800AA93A881E8DFE881E295E883A881E3DF30
:1005680085E88A95F1F7219608951A930A931A2F28
:100578000A81E12FF0E0EB50FE4FE081E00FAE2F53
:10058800E7DF0093F9011093FA0119810881239696
:100598000895A2E0C5D0ACE0DBDFA1E0C1D0E0E087
:1005A800E093FA01E093F90108951A931A2F1A308B
:1005B80031F0E091FB01A091F901AE1758F0E0E0AD
:1005C800EA93A091FA01AF5FA093FA01CEDF1A3047
:1005D80009F443C0E091F901EF5FE093F901D89A7B
:1005E800A12FB6DFD89839C0A8D09D01D9012F5FB7
:1005F8003F4FEC911E2FE03019F0A12FD6DFF6CF38
:10060800A3D0249608951A931A2FEAB3E06FEABB91
:10061800D29AD09AD19ADA98D898D9981093FB019F
:10062800E12FE058E093F701E12FE054E093F8015F
:10063800A4E1B0E093D078D077D076D0A0E273DF91
:1006480088EC90E00197F1F7A8E282DFA4E080DF70
:10065800A5E87EDFA6E07CDF9CDF19910895BA93B8
:10066800AA93A991B991E991F99130962AF4E09564
:10067800F09531966DE26D93E89480E197E20DD0A4
:1006880088EE93E00AD084E6992707D08AE005D05F
:100698006E2F10D066276C9308956627E817F90720
:1006A80020F06395E81BF90BC9F7662311F416F0DF
:1006B80008956894605D6D930895E0E0EA93A1E081
:1006C80054CFA8EEB3E04AD064CFE8BBE6B3E07FEE
:1006D800DE2EE0EFED150895EC2DA2EEB1E0F0E08E
:1006E80038D00895F0E0FA93EA93A2EFB1E0B7DFCB
:1006F800A2EFB1E079CFA2EFB1E0B1DFA2EFB1E0B4
:1007080073CF1A930A933A932A93DA0104DEA8EE78
:10071800B3E024C0E1E0F0E0E887F987A401089598
:1007280017DFA3E0B0E01AC0A0E3FDDE88EC90E09C
:100738000197F1F708955A934A933A932A931A9393
:100748000A9308955D814C813B812A811981088132
:100758000895EE0FFF1FEE0FFF1F0895109639F052
:10076800A89580ED97E00197F1F71197C9F70895DB
:00000001FF
